{
  "contractName": "Pollster",
  "abi": [
    {
      "constant": true,
      "inputs": [],
      "name": "getBalance",
      "outputs": [
        {
          "name": "",
          "type": "uint256"
        }
      ],
      "payable": false,
      "type": "function"
    },
    {
      "constant": true,
      "inputs": [
        {
          "name": "pollNum",
          "type": "uint256"
        }
      ],
      "name": "getReward",
      "outputs": [
        {
          "name": "",
          "type": "uint256"
        }
      ],
      "payable": false,
      "type": "function"
    },
    {
      "constant": false,
      "inputs": [],
      "name": "withdraw",
      "outputs": [
        {
          "name": "transferedAmount",
          "type": "uint256"
        }
      ],
      "payable": false,
      "type": "function"
    },
    {
      "constant": true,
      "inputs": [
        {
          "name": "pollNum",
          "type": "uint256"
        }
      ],
      "name": "getnumVoters",
      "outputs": [
        {
          "name": "",
          "type": "uint256"
        }
      ],
      "payable": false,
      "type": "function"
    },
    {
      "constant": true,
      "inputs": [],
      "name": "pollNumber",
      "outputs": [
        {
          "name": "",
          "type": "uint256"
        }
      ],
      "payable": false,
      "type": "function"
    },
    {
      "constant": true,
      "inputs": [
        {
          "name": "pollNum",
          "type": "uint256"
        }
      ],
      "name": "getResults",
      "outputs": [
        {
          "name": "",
          "type": "string"
        },
        {
          "name": "",
          "type": "uint256[]"
        }
      ],
      "payable": false,
      "type": "function"
    },
    {
      "constant": false,
      "inputs": [
        {
          "name": "_question",
          "type": "string"
        },
        {
          "name": "_choices",
          "type": "uint256[]"
        },
        {
          "name": "_numPolls",
          "type": "uint256"
        }
      ],
      "name": "newPoll",
      "outputs": [
        {
          "name": "newPollNumber",
          "type": "uint256"
        }
      ],
      "payable": true,
      "type": "function"
    },
    {
      "constant": false,
      "inputs": [
        {
          "name": "pollNum",
          "type": "uint256"
        },
        {
          "name": "_choice",
          "type": "uint256"
        }
      ],
      "name": "vote",
      "outputs": [
        {
          "name": "",
          "type": "bool"
        }
      ],
      "payable": false,
      "type": "function"
    },
    {
      "constant": true,
      "inputs": [
        {
          "name": "pollNum",
          "type": "uint256"
        }
      ],
      "name": "getQuestion",
      "outputs": [
        {
          "name": "",
          "type": "string"
        },
        {
          "name": "",
          "type": "uint256[]"
        }
      ],
      "payable": false,
      "type": "function"
    },
    {
      "constant": true,
      "inputs": [],
      "name": "getNumPolls",
      "outputs": [
        {
          "name": "",
          "type": "uint256"
        }
      ],
      "payable": false,
      "type": "function"
    },
    {
      "inputs": [],
      "payable": false,
      "type": "constructor"
    },
    {
      "payable": false,
      "type": "fallback"
    },
    {
      "anonymous": false,
      "inputs": [
        {
          "indexed": false,
          "name": "",
          "type": "address"
        }
      ],
      "name": "VoteSubmitted",
      "type": "event"
    },
    {
      "anonymous": false,
      "inputs": [
        {
          "indexed": false,
          "name": "",
          "type": "address"
        },
        {
          "indexed": false,
          "name": "",
          "type": "string"
        }
      ],
      "name": "PollOpened",
      "type": "event"
    },
    {
      "anonymous": false,
      "inputs": [
        {
          "indexed": false,
          "name": "",
          "type": "address"
        },
        {
          "indexed": false,
          "name": "",
          "type": "string"
        },
        {
          "indexed": false,
          "name": "",
          "type": "uint256[]"
        },
        {
          "indexed": false,
          "name": "",
          "type": "uint256[]"
        }
      ],
      "name": "PollClosed",
      "type": "event"
    },
    {
      "anonymous": false,
      "inputs": [
        {
          "indexed": false,
          "name": "",
          "type": "address"
        },
        {
          "indexed": false,
          "name": "",
          "type": "string"
        }
      ],
      "name": "PollReset",
      "type": "event"
    },
    {
      "anonymous": false,
      "inputs": [
        {
          "indexed": false,
          "name": "",
          "type": "address"
        }
      ],
      "name": "Withdrawal",
      "type": "event"
    },
    {
      "anonymous": false,
      "inputs": [
        {
          "indexed": false,
          "name": "",
          "type": "uint256"
        }
      ],
      "name": "RewardSet",
      "type": "event"
    }
  ],
  "bytecode": "0x60606040526000805460ff19169055341561001957600080fd5b5b60005460ff161561002a57600080fd5b600160028190556000805460ff191690911790555b5b5b610f1f806100506000396000f300606060405236156100a15763ffffffff7c010000000000000000000000000000000000000000000000000000000060003504166312065fe081146100b45780631c4b774b146100d95780633ccfd60b14610101578063560e47dc1461012657806362868d741461014e57806381a60c0d146101735780639d6d679f14610248578063b384abef146102e2578063db88176f1461030f578063ed61efa5146103e4575b34156100ac57600080fd5b5b600080fd5b005b34156100bf57600080fd5b6100c7610409565b60405190815260200160405180910390f35b34156100e457600080fd5b6100c7600435610426565b60405190815260200160405180910390f35b341561010c57600080fd5b6100c761043e565b60405190815260200160405180910390f35b341561013157600080fd5b6100c76004356104f6565b60405190815260200160405180910390f35b341561015957600080fd5b6100c761050e565b60405190815260200160405180910390f35b341561017e57600080fd5b610189600435610514565b604051808060200180602001838103835285818151815260200191508051906020019080838360005b838110156101cb5780820151818401525b6020016101b2565b50505050905090810190601f1680156101f85780820380516001836020036101000a031916815260200191505b50838103825284818151815260200191508051906020019060200280838360005b838110156102325780820151818401525b602001610219565b5050505090500194505050505060405180910390f35b6100c760046024813581810190830135806020601f820181900481020160405190810160405281815292919060208401838380828437820191505050505050919080359060200190820180359060200190808060200260200160405190810160405280939291908181526020018383602002808284375094965050933593506106a592505050565b60405190815260200160405180910390f35b34156102ed57600080fd5b6102fb600435602435610904565b604051901515815260200160405180910390f35b341561031a57600080fd5b610189600435610ca4565b604051808060200180602001838103835285818151815260200191508051906020019080838360005b838110156101cb5780820151818401525b6020016101b2565b50505050905090810190601f1680156101f85780820380516001836020036101000a031916815260200191505b50838103825284818151815260200191508051906020019060200280838360005b838110156102325780820151818401525b602001610219565b5050505090500194505050505060405180910390f35b34156103ef57600080fd5b6100c7610dd8565b60405190815260200160405180910390f35b600160a060020a0333166000908152600360205260409020545b90565b6000818152600160205260409020600601545b919050565b600160a060020a0333166000908152600360205260408120548190151561046857600091506104f2565b50600160a060020a033316600081815260036020526040808220805492905590919082156108fc0290839051600060405180830381858888f1935050505015156104b157600080fd5b7fe19ed71156e31b3c9e18ac7ad8d1b79f0a0feb3be18d23dae612e52040aada4b33604051600160a060020a03909116815260200160405180910390a18091505b5090565b6000818152600160205260409020600801545b919050565b60025481565b61051c610de3565b610524610de3565b8260015b60008281526001602081905260409091206007015460ff169081111561054a57fe5b1461055457600080fd5b600084815260016020526040902054849033600160a060020a0390811691161461057d57600080fd5b6001600086815260200190815260200160002060010160016000878152602001908152602001600020600301818054600181600116156101000203166002900480601f01602080910402602001604051908101604052809291908181526020018280546001816001161561010002031660029004801561063e5780601f106106135761010080835404028352916020019161063e565b820191906000526020600020905b81548152906001019060200180831161062157829003601f168201915b505050505091508080548060200260200160405190810160405280929190818152602001828054801561069057602002820191906000526020600020905b81548152602001906001019080831161067c575b50505050509050935093505b5b505b50915091565b60008080838181116106b657600080fd5b8485348115156106c257fe5b0402925084348115156106d157fe5b0491506101206040519081016040528033600160a060020a03168152602001888152602001878152602001875160405180591061070b5750595b908082528060200260200182016040525b50815260208101879052604081018590526060810184905260800160005b81526000602091820181905260025481526001909152604090208151815473ffffffffffffffffffffffffffffffffffffffff1916600160a060020a0391909116178155602082015181600101908051610798929160200190610e07565b506040820151816002019080516107b3929160200190610e86565b506060820151816003019080516107ce929160200190610e86565b506080820151816004015560a0820151816005015560c0820151816006015560e082015160078201805460ff19166001838181111561080957fe5b021790555061010082015160089091015550600160a060020a0333908116600090815260036020526040908190203486900390556002805460010190557f9fecf877e4cd91d7b10515db53292428b28d0f5ed5ca17d6dcbd41e822dec13e9190899051600160a060020a038316815260406020820181815290820183818151815260200191508051906020019080838360005b838110156108b55780820151818401525b60200161089c565b50505050905090810190601f1680156108e25780820380516001836020036101000a031916815260200191505b50935050505060405180910390a160016002540393505b5b5050509392505050565b600082815b60008281526001602081905260409091206007015460ff169081111561092b57fe5b1461093557600080fd5b6000848152600160208181526040808420600160a060020a03331685526009019091529091200154849060ff161561096c57600080fd5b60008581526001602052604090206002015485908590811061098d57600080fd5b6040805190810160409081528782526001602080840182905260008b8152918152828220600160a060020a03331683526009019052208151815560208201516001918201805460ff19169115159190911790556000898152602082905260409081902060080180549092019091557f1c26417f95a42faa0054c853f91f54299085843f96cf6bc228ca7fdbc0ac94089150339051600160a060020a03909116815260200160405180910390a16000878152600160208190526040909120600301805488908110610a5957fe5b906000526020600020900160005b50805490910190556000878152600160205260409020600481015460089091015410610c63576000878152600160208190526040909120600701805460ff191682805b021790555060008781526001602081905260409182902080547f9c2f80142d435579fd14c363821ce16746292b3c4b7bceb94208a47613fd6c7d93600160a060020a0390911692820191600281019160039091019051600160a060020a0385168152608060208201818152855460026000196101006001841615020190911604918301829052906040830190606084019060a085019088908015610b8f5780601f10610b6457610100808354040283529160200191610b8f565b820191906000526020600020905b815481529060010190602001808311610b7257829003601f168201915b50508481038352868181548152602001915080548015610bce57602002820191906000526020600020905b815481526020019060010190808311610bba575b50508481038252858181548152602001915080548015610c0d57602002820191906000526020600020905b815481526020019060010190808311610bf9575b505097505050505050505060405180910390a160008781526001602090815260408083206004810154600682015460058301549254600160a060020a031686526003909452919093208054929091029092030190555b600087815260016020818152604080842060060154600160a060020a03331685526003909252909220805490920190915594505b5b50505b505b5092915050565b610cac610de3565b610cb4610de3565b6001600084815260200190815260200160002060010160016000858152602001908152602001600020600201818054600181600116156101000203166002900480601f016020809104026020016040519081016040528092919081815260200182805460018160011615610100020316600290048015610d755780601f10610d4a57610100808354040283529160200191610d75565b820191906000526020600020905b815481529060010190602001808311610d5857829003601f168201915b5050505050915080805480602002602001604051908101604052809291908181526020018280548015610dc757602002820191906000526020600020905b815481526020019060010190808311610db3575b50505050509050915091505b915091565b600254600019015b90565b60206040519081016040526000815290565b60206040519081016040526000815290565b828054600181600116156101000203166002900490600052602060002090601f016020900481019282601f10610e4857805160ff1916838001178555610e75565b82800160010185558215610e75579182015b82811115610e75578251825591602001919060010190610e5a565b5b506104f2929150610ed2565b5090565b828054828255906000526020600020908101928215610e75579160200282015b82811115610e75578251825591602001919060010190610e5a565b5b506104f2929150610ed2565b5090565b61042391905b808211156104f25760008155600101610ed8565b5090565b905600a165627a7a72305820366b06c95b57e420c0b08f6e425ede22705cf16e222cc02174545a6d4bf225d20029",
  "source": "pragma solidity 0.4.15;\n\n//\"test\", [1, 2, 3], 3\n\ncontract Pollster {\n\n\tenum State {Open, Closed}\n\n\tbool constructorCalled = false;\n\n\tstruct Vote {\n\t    uint choice;\n\t    bool exists;\n\t}\n\n\tstruct Poll {\n\t    address owner;\n\n    \tstring question;\n    \tuint [] choices;\n    \tuint [] result;\n    \tuint numPolls;\n\n      uint rewardtotal;\n    \tuint reward;\n\n    \tState pollState;\n\n    \tuint numVoters;\n    \tmapping(address => Vote) votes;\n\t}\n\n\tmapping(uint => Poll) polls;\n\tuint public pollNumber;\n\n    mapping(address => uint) balances;\n\n\tevent VoteSubmitted(address);\n\tevent PollOpened(address, string);\n\tevent PollClosed(address, string, uint[], uint[]);\n\tevent PollReset(address, string);\n    event Withdrawal(address);\n    event RewardSet(uint);\n\n\n    modifier constructorNotCalled () {\n        require(constructorCalled == false);\n        _;\n    }\n\tmodifier isOwner (uint pollNum) {\n        require(polls[pollNum].owner == msg.sender);\n        _;\n    }\n    modifier isOpen (uint pollNum) {\n        require(polls[pollNum].pollState == State.Open);\n        _;\n    }\n    modifier isClosed (uint pollNum) {\n        require(polls[pollNum].pollState == State.Closed);\n        _;\n    }\n    modifier firstVote (uint pollNum) {\n        require(polls[pollNum].votes[msg.sender].exists == false);\n        _;\n    }\n    modifier viableChoice(uint pollNum ,uint _choice) {\n        require(_choice < polls[pollNum].choices.length);\n\t    _;\n    }\n    modifier enoughPolls(uint numPolls) {\n        require(numPolls > 0);\n\t    _;\n    }\n\n\n\tfunction Pollster() constructorNotCalled() public {\n        pollNumber = 1;\n        constructorCalled = true;\n\t}\n\n\tfunction newPoll(string _question, uint[] _choices, uint _numPolls) enoughPolls(_numPolls) payable public returns (uint newPollNumber){\n\t    uint _rewardtotal = msg.value / _numPolls * _numPolls;\n\t    uint _reward = msg.value / _numPolls;\n\n\t    polls[pollNumber] = Poll({\n\t        owner: msg.sender,\n\t        question: _question,\n\t        choices: _choices,\n\t        result: new uint[](_choices.length),\n\t        numPolls: _numPolls,\n\t        rewardtotal: _rewardtotal,\n\t        reward: _reward,\n\t        pollState: State.Open,\n\t        numVoters: 0\n\t    });\n\n\t    balances[msg.sender] = msg.value - _rewardtotal;\n\n\t    pollNumber += 1;\n\t    PollOpened(msg.sender, _question);\n\n\t    return pollNumber - 1;\n\t}\n\n\tfunction vote(uint pollNum, uint _choice) public isOpen(pollNum) firstVote(pollNum) viableChoice(pollNum, _choice) returns (bool) {\n\t    polls[pollNum].votes[msg.sender] = Vote(_choice, true);\n\t    polls[pollNum].numVoters += 1;\n\t    VoteSubmitted(msg.sender);\n\t    polls[pollNum].result[_choice] += 1;\n\t    if (polls[pollNum].numVoters >= polls[pollNum].numPolls ) {\n\t        polls[pollNum].pollState = State.Closed;\n\t        PollClosed(polls[pollNum].owner, polls[pollNum].question, polls[pollNum].choices, polls[pollNum].result);\n\t        balances[polls[pollNum].owner] += polls[pollNum].rewardtotal - polls[pollNum].reward * polls[pollNum].numPolls;\n\t    }\n\n        balances[msg.sender] += polls[pollNum].reward;\n\n\t    return true;\n\t}\n\n\tfunction getQuestion(uint pollNum) constant public returns (string, uint[]) {\n\t    return (polls[pollNum].question, polls[pollNum].choices);\n\t}\n\n\tfunction getResults(uint pollNum) public constant isClosed(pollNum) isOwner(pollNum) returns(string, uint[]) {\n\t    return (polls[pollNum].question, polls[pollNum].result);\n\t}\n\n\tfunction getReward(uint pollNum) constant public returns (uint) {\n\t    return polls[pollNum].reward;\n\t}\n\n\tfunction getnumVoters(uint pollNum) public constant returns (uint) {\n\t    return polls[pollNum].numVoters;\n\t}\n\n\tfunction getNumPolls() public constant returns (uint) {\n\t    return pollNumber - 1;\n\t}\n\n\tfunction getBalance() public constant returns (uint) {\n\t    return balances[msg.sender];\n\t}\n\n\tfunction withdraw() public returns (uint transferedAmount) {\n\t    if (balances[msg.sender] == 0) {\n\t      return 0;\n\t    }\n\n      uint transferAmount = balances[msg.sender];\n\t    balances[msg.sender] = 0;\n\t    msg.sender.transfer(transferAmount);\n\t    Withdrawal(msg.sender);\n\t    return transferAmount;\n\t}\n\n\t/* Fallback function */\n\tfunction() public {\n\t\trevert();\n\t}\n}\n",
  "sourcePath": "/Users/toneychang/B@B/fa17/dev-cert/Pollster/contracts/Pollster.sol",
  "schemaVersion": "1.0.0",
  "updatedAt": "2017-09-29T22:24:01.052Z"
}